:020000040800F2
:10000000B0470020052F0008312D0008332D0008CF
:10001000352D0008372D0008392D0008000000009C
:10002000000000000000000000000000D90B0008E4
:100030003B2D000800000000810B0008F10A0008B9
:10004000352F0008392F00083D2F0008412F0008E8
:10005000452F0008492F00084D2F0008512F000898
:10006000552F0008592F00085D2F0008612F000848
:100070003D2D0008652F0008692F00086D2F00082E
:10008000432D0008712F0008752F0008492D000826
:100090004D2D0008792F00087D2F0008812F0008C2
:1000A000852F0008552D0008892F00088D2F000886
:1000B000912F0008952F0008992F00089D2F000808
:1000C000A12F0008A52F0008A92F0008AD2F0008B8
:1000D000B12F00085B2D0008612D0008672D000876
:1000E000B52F0008B92F0008BD2F0008C12F000848
:1000F000C52F0008C92F0008CD2F0008D12F0008F8
:10010000D52F0008D92F0008DD2F0008E12F0008A7
:10011000E52F0008E92F0008ED2F0008F12F000857
:10012000F52F00086D2D0008732D0008F92F000829
:10013000FD2F00080130000805300008792D000867
:100140007D2D0008093000080D300008113000082E
:1001500015300008193000081D300008852D0008F2
:100160002130000825300008293000082D30000813
:100170003130000835300008393000080000000038
:100180003D30000841300008453000084930000883
:100190004D30000851300008553000085930000833
:1001A00000000000000000005D300008F0B585B0E0
:1001B00050260B9D25B986F3118800F011FAFEE751
:1001C0000C9C24B986F3118800F00AFAFEE7542744
:1001D0000097009F542F04D086F3118800F000FA96
:1001E000FEE725630026022584F8515004AF0A9DDE
:1001F000039602940197009500F034F8204600F031
:100200006DF8049805B0F0BD2DE9F8430646174691
:1002100084B088469946B80000F08CFA05001CD0DE
:10022000542000F087FA040014D00020256384F8DD
:100230005100039002940D980C99019000914B4647
:100240003A464146304600F00DF8204600F046F8A8
:10025000012004E0284600F0F6FA4FF0FF3005B028
:10026000BDE8F0832DE9F0470A9E8146306B00EB34
:100270008202101FC0084FEAC00A00228C5CB0182E
:1002800080F83440885C10B1521C102AF6D3089DC7
:10029000002086F84300062D099C88BF062506F13C
:1002A0004407F5623D6078609846301D00F029FBF8
:1002B00006F1180000F025FB3661C5F10705B561B0
:1002C00076620020B860387342464946504600F0D6
:1002D00071FB306004B12660BDE8F0872DE9F04184
:1002E00000F067F8DFF8B453DFF8C883E86C401C0F
:1002F000E8641426A86A28BBAC62E86C012829D1FE
:10030000002706FB07F0404400F0EEFA7F1C072FA1
:10031000F7D305F1740000F0E7FA05F188073846D5
:1003200000F0E2FA284600F0DFFA05F1140000F0D0
:10033000DBFA05F1380000F0D7FA05F17400E86245
:100340002F6307E0A86D28B9E06AA96ACA6A9042DB
:1003500028BFAC62A86E401CA86600F093F9464323
:10036000211D08EB060000F0CFFA00F0B0FBA86DED
:1003700030B100F03AF903D200F095F900F030F90D
:10038000BDE8F08180B588B1DFF81023116F21B18D
:1003900000F03CF800F024F9FEE7116F491C1167EA
:1003A000002100F089F900F03BF808B900F013F9DA
:1003B00001BD044600F072BB80B586B000210591F6
:1003C000049103AA04A905A800F0D0FB059804999C
:1003D00002900022009201910023039A0FF24C3107
:1003E0000FF21120FFF7E2FE70B100F00FF800F0FD
:1003F000F7F8DFF828034FF0FF31C166012282656C
:100400000021016500F0F8FA07B000BD502080F32C
:1004100011887047DFF80403016F491C01677047BA
:1004200070B5DFF87862306F0024002520B900F045
:1004300043F800F0D5F8FEE700F030FB306F401EC7
:100440003067306F002836D1F06CD8B933E0F068EF
:10045000C46800F035F800F012F9E06A716DDFF859
:10046000B832012282401143716514225043211D8C
:10047000184400F049FAE06AB16ACA6A904224BF9F
:100480000121316630680028E1D10CB100F0EAF8B2
:10049000F46D3CB100F018F808B101203066641E1C
:1004A000F8D1F565306E30B1DFF874124FF080503E
:1004B000012500F094F8ECE0502181F31188704799
:1004C00004F1180000F046BA2DE9F843DFF8CC71CA
:1004D000386F002600284ED13C6D641C3C6510D15D
:1004E000F86A006820B1FFF7E7FF00F079F8FEE74F
:1004F000F86A396BF9623863786E401C786600F0F0
:10050000B1F8F86EDFF8109284424FF0140828D347
:100510001AE0281D00F01EFAA86A18B105F11800AB
:1005200000F018FAE86A796D01228240114379657A
:1005300008FB00F0291D484400F0E6F9E86AB96AB2
:10054000CA6A904228BF0126F86A006830B1F86A8A
:10055000C168CD6868688442DBD201E04FF0FF30AB
:10056000F866B86AC06A08FB00F059F80010022962
:1005700004D3012602E0F86D401CF865386E00B126
:1005800001268DE0DFF81421106F10B101211166F2
:10059000704710661421506DB0FA80F3C3F11F0349
:1005A0004B43DFF87411C85838B9502181F31188D2
:1005B000BFF34F8FBFF36F8FFEE7C81800F108033A
:1005C000416849684160994204BF49684160406898
:1005D000C16891627047DFF848114FF080500860A1
:1005E000BFF34F8FBFF36F8F7047A86AC16AE06A8D
:1005F0008142704770B5DFF8BC40DFF8205111E050
:1006000000F04CFA286AC668301D00F0A3F9E86CC7
:10061000401EE864686B401E686300F058FA30467C
:1006200000F009F8686B0028EAD121680229F9D3A3
:10063000FFF7D1FFF6E710B5044694F8510040B932
:10064000206B00F000F92046BDE8104000F0FBB838
:1006500010BD0128F7D00228FAD0FFF7D7FEFFF728
:10066000BFFFFEE70D49C86A006810B94FF0FF32BE
:1006700003E0C86AC268D0684268CA667047201D35
:1006800000F068B90122E06A696D82401143696532
:10069000704700F01CFA284670BD00004C40002056
:1006A0003046BDE8F2831E4A4FF08051116070471A
:1006B00000000000E8400020F8B5184D2F6D0C46F2
:1006C000A96A0646081D00F045F930B9A86A696DA7
:1006D000C06A012282409143696516F1010F05D17C
:1006E00024B1A86A011D05F138001BE0A86AF619BB
:1006F0004660BE42A86A05D2011D286BBDE8F440E1
:1007000000F00FB9011DE86A00F00BF9E86E8642AF
:1007100038BFEE66F1BD0000E84000204C400020EC
:1007200004ED00E0BDE8F44000F0EEB849444C456B
:10073000000000002DE9F8430446FFF76BFE694F07
:10074000B8684FF00009002508BB07F1180307F14E
:10075000180113F0070F4FF470500A4605D0CA1D58
:10076000D208D200C2F57050081880180838C008A6
:10077000C0003A607D60B86045600560831A5360D0
:10078000106050683861F8604FF0004078614FF0B9
:1007900050087869044246D1002C44D0083414F043
:1007A000070F1FBF04F1080004F00704041B14F036
:1007B000070F02D000F040F8FEE7A4B3F868A042AB
:1007C00031D33E68394601E0314606467068A042A2
:1007D00002D230680028F7D1B868864223D00A6870
:1007E0003068086002F108097268121B112A0CD3E4
:1007F000311911F0070002D000F01EF8FEE7301D9D
:1008000002517460084600F048F87168F8683A6967
:10081000401AF860904238BF3861786901437160CE
:10082000356009F00705FFF7FBFD15B100F004F88E
:10083000FEE74846BDE8F28388F31188BFF34F8F87
:10084000BFF36F8F7047002800D1704738B5A0F113
:100850000804244D61686A695023114202D100F0F6
:1008600015F8FEE7206810B100F010F8FEE791439C
:100870006160FFF7CFFDE96860684118E9602046D4
:1008800000F00BF8BDE83140FFF7CABD83F31188D3
:10089000BFF34F8FBFF36F8F704730B511490A46D2
:1008A00000E01A4613688342FBD35368D41884428D
:1008B00003D14068C3185360104643681468C518D4
:1008C000A54208D189688C4204D06168CB18436086
:1008D000246800E00C460460824218BF106030BDFE
:1008E000000000001C0000204FF0FF3200F1080162
:1008F00082604160C16000F1080202610021016074
:10090000704700210161704710B542684A609368E2
:100910008B6094686160916008610168491C0160A6
:1009200010BD30B50A6812F1010F08BF036907D086
:1009300000F1080300E023465C682568AA42FAD269
:100940005A684A6091608B60596008610168491C6F
:10095000016030BD4368016982689A6083684268BB
:100960005A604A68824204BF83684B600022026179
:100970000868401E08600868704730B4002513E01E
:1009800050F8042BD30744BFA9F101039A18091F9B
:10099000042942F8045BFAD213468C0744BF158041
:1009A0009B1CC90748BF1D7050F8041B0029E7D1E4
:1009B00030BC7047490810B54900A0F120034FF042
:1009C000807499611A60DC616FF002020FF20D0110
:1009D000596140F8242D203810BD00004E494A6866
:1009E000502012F1010F80F31188BFF34F8FBFF336
:1009F0006F8F00D0FEE7FEE77CB5484A484B106891
:100A00005021984202D100F095F8FEE71068454B5E
:100A1000984202D100F08EF8FEE7434B1C78019417
:100A2000FF251D7007251E783B4C8DF800609DF852
:100A30000000A56000F05000207006E0401EA0609D
:100A40009DF8000040008DF80000A0689DF800505F
:100A50002E06F3D4C0F10705042D02D000F06AF889
:100A6000FEE7000200F4E060A06001981870116ACF
:100A700041F470011162106A40F07040106200F0A1
:100A800061F80020606000F0C5F82848016841F076
:100A90004041016000F0AEF8002076BD502080F3A8
:100AA0001188BFF34F8FBFF36F8F1B494A68521CE9
:100AB000012A4A600AD11E490A68130606D080F34B
:100AC0001188BFF34F8FBFF36F8FFEE77047124956
:100AD000486838B9502080F31188BFF34F8FBFF3B7
:100AE0006F8FFEE7401E486008BF80F31188704793
:100AF00080B5502080F31188BFF34F8FBFF36F8F05
:100B0000FFF7E2FC18B10A494FF08050086000225C
:100B100082F3118801BD00000000002000ED00E01C
:100B200071C20F4170C20F4100E400E034EF00E0F9
:100B300004ED00E081F31188BFF34F8FBFF36F8F97
:100B4000704700000748084B0021016081604FF4A6
:100B50007A721968B1FBF2F2521E426007210160FD
:100B6000704700BF10E000E018000020034B036056
:100B700003F154000860802111607047343C00206C
:100B8000EFF30980BFF36F8F264B1A681EF0100F2A
:100B900008BF20ED108A20E9F04F106009B44FF033
:100BA000500080F31188BFF34F8FBFF36F8FFFF7B3
:100BB000E9FC4FF0000080F3118809BC196808684F
:100BC000B0E8F04F1EF0100F08BFB0EC108A80F3B1
:100BD0000988BFF36F8F7047124B19680868B0E837
:100BE000F04F80F30988BFF36F8F4FF0000080F360
:100BF000118870470C480068006880F308884FF03F
:100C0000000080F3148862B661B6BFF34F8FBFF364
:100C10006F8F00DFDFF81400016841F4700101609C
:100C2000704700007440002008ED00E088ED00E00F
:100C300038B5040001D1012032BD00F031F818B9F7
:100C400000F02AF800F05CFA0FE00068C16841F09B
:100C50000101C160816801F00701062903D0016824
:100C600041F0010101600020704702206870211DE1
:100C7000206800F035F901206870002032BD38B5D9
:100C8000040001D1012032BD00F00AF818B900F0CB
:100C900003F800F056FAE8E7002129702046704773
:100CA00004F13C056878704710B504462068016976
:100CB0008A0715D5C1688A0712D56FF00201016154
:100CC00001222277806910F0030F204602D000F045
:100CD00033FC03E000F031FC00F087F800202077BF
:100CE000206801694A0715D5C1684A0712D56FF017
:100CF0000401016102222277806910F4407F2046BE
:100D000002D000F019FC03E000F017FC00F06DF8D1
:100D100000202077206801690A0715D5C1680A07F5
:100D200012D56FF00801016104222277C06910F02A
:100D3000030F204602D000F0FFFB03E000F0FDFBB4
:100D400000F053F80020207720680169CA0615D505
:100D5000C168CA0612D56FF010010161082222771E
:100D6000C06910F4407F204602D000F0E5FB03E0AC
:100D700000F0E3FB00F039F80020207720680169DB
:100D8000CA0708D5C168CA0705D56FF0010101611E
:100D9000204600F0E4FD206801690A0608D5C16814
:100DA0000A0605D56FF080010161204600F010FEB3
:100DB000206801694A0608D5C1684A0605D56FF062
:100DC00040010161204600F004FE206801698A06A6
:100DD0000AD5C1688A0607D56FF020010161204657
:100DE000BDE8104000F0F6BD10BD204600F0F3BD98
:100DF00070B500F063F801D1022070BD00F06BF80F
:100E000032B1042A17D0082A28D00C2A39D04AE057
:100E10003068294600F0AFF83068816941F0080178
:100E200000F048F821F00401816131688A6928697D
:100E300002438A6137E03068294600F0C8F830681C
:100E4000816941F4006100F035F821F4806100F01F
:100E500031F82A6941EA0221816124E0306829469B
:100E600000F0E5F83068C16941F0080100F01EF8B3
:100E700021F00401C1613168CA6928690243CA616D
:100E800011E03068294600F001F93068C16941F489
:100E9000006100F00BF821F4806100F007F82A6986
:100EA00041EA0221C16100F010F870BDC1613068F3
:100EB000C16970478161306881697047064606F1F3
:100EC0003C040D4620780128704701206070002105
:100ED000217000207047012020700221617070474E
:100EE000F0B57C4C05687C4B7C4E7D4FDFF8F4C13F
:100EF000A04218BFB0F1804F07D0604518BFB8427C
:100F000003D0B04218BF98420DD14A6825F0700551
:100F10001543A04218BFB0F1804F17D060451CBFE9
:100F2000B842B04212D098421CBF6F4A90420DD0D6
:100F30006E4EB0421CBF6E4A904207D06D4EB0421A
:100F40001FBF6D4A90426D4EB04203D1CA6825F46E
:100F5000407515434A6925F0800515430560A04298
:100F60008D68C5620A68826212BF9842096901638E
:100F700001224261F0BDF0B5026A564F520852009C
:100F80000262066A446885690B688A6825F0730501
:100F900026F002061D4316434F4BB84218BF984235
:100FA00007D1CA6826F008061643B84226F00406A0
:100FB00001D0984205D14B698A6924F440741C43DE
:100FC000144344608561496841630662F0BDF0B531
:100FD000026A404E22F010020262B042056A436883
:100FE00084690A6824F4E64444EA02248A6825F005
:100FF000200545EA0215384A18BF904208D1CF684B
:1010000025F0800545EA0715B04225F0400501D0DE
:10101000904206D14E698A6923F44063164343EA3D
:10102000860343608461496881630562F0BDF0B561
:10103000026A22F480720262056A4368C4698E689B
:101040000A6825F4007524F0730445EA0625144364
:10105000204E214AB04218BF904208D1CF6825F4F3
:10106000006545EA0725B04225F4806501D090422D
:1010700006D14E698A6923F44053164343EA0613A6
:101080004360C4614968C1630562F0BD70B5026A1E
:10109000104E22F480520262B042046A4268C36970
:1010A0000D6823F4E64343EA05238D6824F40054D5
:1010B00044EA05341CBF084DA84204D14D6922F40E
:1010C000804242EA85124260C36149680164046259
:1010D00070BD00000000014000040140000C004011
:1010E000000800400004004000400140004401406E
:1010F0000048014000180040001C00400020004053
:101100007047000082B0002000900022DFF8D40376
:10111000416841F480414160416801F4804100919F
:10112000009900920F21036843F080530360006828
:1011300000F08050009000986FF0010002B000F0C5
:1011400065BC81B00068DFF8A023DFF898139042F7
:1011500009D1002000900A6842F002020A60086883
:1011600000F002001AE0DFF88423904209D1002049
:1011700000900A6842F004020A60086800F0040067
:101180000CE0DFF86C2390420AD1002000900A683E
:1011900042F008020A60086800F008000090009819
:1011A00001B0704710B586B000F085F92168DFF80E
:1011B0003823DFF8400391420FD10021059120210F
:1011C000026842F0020202600222006800F002009F
:1011D00005900598DFF8200313E0DFF81023914213
:1011E00012D1002105914FF47041026842F00802CB
:1011F00002600222006800F0080005900598DFF800
:10120000FC0200F034F82EE0DFF8E42291422CD109
:1012100000210591026842F4807202600022016898
:1012200001F480710591059905920121036843F04D
:10123000800303600222006800F08000059005989A
:10124000DFF8BC0200F013F800F012FC00224FF4AB
:10125000E050022102920392009001910222049236
:101260006946DFF8A00200F003FC06B010BD009153
:101270000192002102910391022104916946704775
:101280002DE9F04186B000F016F922689E489F4D86
:10129000984982424FF480684FF0006650D1002296
:1012A000059248699A4F40F010004861486900F083
:1012B00010000590059805920B6843F002030B603F
:1012C000086800F0020000F0F0F843F001030B6042
:1012D000086800F00100059080210598864800F01C
:1012E000DEF8072100F0CDF80221019101220292DF
:1012F0004FF4007003210090039107220492694685
:10130000844800F0B5FB05F1180038600021B96091
:10131000F9607961B961F961396279627E60C7F813
:101320001080384600F0A6FC08B100F041FB67636E
:10133000BC6300220521252000F068FB25209BE0EE
:10134000754B764F6D489A422CD1002205920B695D
:10135000734D43F400330B6100230A6902F4003239
:1013600000F094F8602200F0ACF807F1600028600B
:101370006E600021A960E960C5F810806961A9610B
:10138000E96129626962284600F074FC08B100F046
:101390000FFB6563AC6300220521262000F036FBBD
:1013A000262069E05F4B9A422BD1002205920B69FF
:1013B0005D4D43F480230B6100230A6902F480220F
:1013C00000F064F84FF4407200F07BF82F606E601C
:1013D0000020A860E860C5F810806861A861E86135
:1013E00028626862284600F045FC08B100F0E0FA87
:1013F0006563AC6300220521272000F007FB27204E
:101400003AE04A48824239D1002205924869484E62
:1014100040F020004861486900F0200000F045F8E5
:1014200043F040030B60086800F0400005904FF463
:10143000844105983F4800F032F8082100F021F877
:1014400035604FF0206070600021B160F160716123
:10145000B161F16131627162C6F81080304600F00E
:1014600009FC08B100F0A4FA6663B4630022052108
:10147000472000F0CBFA472000F0E5FA06B0BDE8BF
:10148000F08104910392694600F0F2BA0592059A40
:10149000059302230A6842F008020A60704700912F
:1014A000019201210291032270470590059805924F
:1014B00002220B687047044614220021684600F09F
:1014C0005BBD096801F0080105910599009201933F
:1014D000012202920323072203930492694600F03B
:1014E000C7BA000040380240000400400008004035
:1014F000000C00403038024000040240000C024062
:1015000000200240001C02400010014028640240FC
:10151000EC410020000002400044004028600240EE
:101520004C42002000480040AC4200200014014022
:101530000C4300200018024070477047F0B589B096
:1015400000F024FD00F0C9F9142200F0B6F90020E3
:10155000DFF81844DFF81854DFF81864DFF818745F
:101560000590216841F0100121600021206800F001
:10157000100000F0A6F942F002022260206800F09C
:10158000020000F09EF942F040022260206800F064
:10159000400000F096F942F008022260206800F056
:1015A000080000F08EF942F480722260206800F496
:1015B000807000F086F942F001022260206800F09D
:1015C000010000F07EF942F020022260206800F065
:1015D00020000590059805914FF4FF71226842F0B4
:1015E000800222600022206800F0800005900598AB
:1015F000284600F020FB00224FF40061304600F046
:101600001AFB00224FF48041384600F014FB002200
:1016100002920320022100900191039000F028F92A
:101620004FF4827000210090019102916946D348E5
:1016300000F01EFA4FF4FF7100F036F9284600F072
:1016400017FA022101914FF47070002203210090DB
:1016500002920391052204926946384600F008FA86
:10166000002202920392402002210090019109225F
:1016700004926946C24800F0FBF902210191002260
:1016800002924FF4C07003210090039100F0F0F833
:101690004FF4006100F008F9304600F0E9F94FF42A
:1016A000804100F001F9384600F0E2F90020009096
:1016B000216841F4800121600021206800F480004D
:1016C0000090009800910521226842F400122260E7
:1016D00000222068AB4C00F40010009004F1840557
:1016E00000980C2000F092F90C2000F0ACF90022D8
:1016F0000521102000F08AF9102000F0A4F9002242
:101700000521392000F082F9392000F09CF90022EF
:1017100005213A2000F07AF93A2000F094F900F01F
:10172000CBF800F0BCF89848E86704F5827600F042
:10173000AFF804F580773846FFF7A1FA00F0C6F855
:1017400060210022029103920492069202A90422CF
:1017500000F09BF83846FFF725FD00F0ADF800F0EB
:101760009EF88A48F063002131647164B164F164C9
:10177000716504F5A0773846FFF781FA00F0A6F806
:1017800000F07CF8042200F07FF8082200F07CF8DA
:101790000C2200F079F83846FFF704FD00F08CF8D1
:1017A00000F07DF87A48F06704F5C27600F070F832
:1017B00004F5C0773846FFF762FA00F087F800F0CA
:1017C0005DF8042200F060F8082200F05DF80C22B9
:1017D00000F05AF83846FFF7E5FC6E48206000211B
:1017E0000C2060614FF4E137A160E1602161A161EB
:1017F000E1616760204600F0E3FB67482064002158
:101800000C206065A164E1642165A165E165676400
:1018100004F1400000F0D4FB6048C4F880000021CF
:101820000C2028616960A960E9606961A9612F6085
:1018300004F1800000F0C4FB5948E86300210C204B
:1018400028656964A964E9646965A9652F6404F180
:10185000C00000F0B5FB684656A11C2200F0BAFD9E
:101860000021684600F0CDFDF06300F0C5FDFEE705
:10187000082204926946304600F0FAB860210291CD
:10188000002203920492069202A93846FFF7B0BAEA
:10189000002131607160B160F160716170471C229C
:1018A000002102A800F068BB0091012200210291F2
:1018B000039101926946704708220021684600F0B2
:1018C0005BBB059005980591226870470021009147
:1018D00001913846694600F0CBBD80B592B0302208
:1018E000002106A800F048FB1422002101A800F006
:1018F00043FB0020009001232A48016841F08051F9
:1019000001600021006800F0805000900098264897
:101910000091026822F4404242F4804202600222B6
:10192000006800F44040009006A80099069210213B
:10193000002209930A910C9200F0BAFD0F20019049
:101940000021029103910491059101A800F018FF74
:1019500013B000BD80B5012000F082FDFBE70068F8
:101960001249884208BF00F0F9BF70473038024082
:10197000001802400010024000140240000402401F
:10198000001C0240883E0020000400400008004087
:10199000000C00400010014000440040004800409E
:1019A0000014014040380240007000400000014037
:1019B00070470000142F00085519000800000000AF
:1019C0000000000080000000000000000000000097
:1019D00070477047704770470901020002D41F48E2
:1019E000815470471E4B02F00F021A4402F8041C87
:1019F00070471C4B19684FF6FF020002114000F4BB
:101A0000E0600843184908431860704770B5154BEB
:101A10001C68C4F302230124C3F10705052D2EBF62
:101A20000F2504FA05F56D1E1E1D072E34BF002379
:101A3000DB1E2940994004FA03F3BDE870405B1EA9
:101A40001A401143C8E7010007D4012200F01F012A
:101A5000064B8A40400943F82020704700E400E02C
:101A600018ED00E00CED00E00000FA0500E100E0F8
:101A70002DE9F84F4FF0000E714A724BDFF8C88124
:101A80004FF00F0906468A460121DAF8004001FAB4
:101A90000EF10C408C4240F0C680DAF80450022D62
:101AA00018BF122D4FEA8E0012D14FEADE0506EB69
:101AB000850C00F01C05DCF8207009FA05FB27EA0C
:101AC0000B07DAF810B00BFA05F53D43CCF82050BF
:101AD0004FEA4E0C032537689AF804B005FA0CF566
:101AE000ED430BF0030B2F400BFA0CFB4BEA0707FF
:101AF0003760DAF80470012F18BF022F03D0112FBE
:101B000018BF122F13D1B768DAF80CB02F400BFAB8
:101B10000CFB4BEA0707B760776827EA0101DAF8A0
:101B20000470C7F3001707FA0EF739437160F168C4
:101B30000D40DAF8081001FA0CF12943F160DAF8E7
:101B40000410C9006FD50025009500F00C00D8F8EE
:101B5000001041F48041C8F8001009FA00F7D8F8E5
:101B6000005005F48045009500994FEA9E0153F816
:101B7000215025EA0707354DAE4208BF00252CD07D
:101B8000334DAE4208BF012527D0324DAE4208BFCB
:101B9000022522D0304DAE4208BF03251DD02F4D67
:101BA000AE4208BF042518D02D4DAE4208BF052512
:101BB00013D02C4DAE4208BF06250ED02A4DAE42A2
:101BC00008BF072509D0294DAE4208BF082504D01B
:101BD000274DAE420CBF09250A2505FA00F038430F
:101BE00043F82100E0431168DAF804500140ED03A6
:101BF00048BF214311605168DAF804500140AD0339
:101C000048BF214351609168DAF804500140ED0269
:101C100048BF21439160D1680140DAF80400800296
:101C200048BF2143D1600EF1010EBEF10F0F7FF6C8
:101C30002BAFBDE8F18F02B9090481617047000044
:101C4000003C014008380140443802400000024096
:101C50000004024000080240000C02400010024054
:101C60000014024000180240001C02400020024004
:101C70000024024070B5044600F078FE06460CB918
:101C8000012070BD04F13405002028700221697024
:101C90002068026852085200026022681068C1077A
:101CA0000AD500F063FE801B0628F6D320202862A8
:101CB00003216970032070BD1368DFF85402616866
:101CC0000340A0680B43E168034320690B4361694B
:101CD0000343A0690B43E1690343206A0B43616A34
:101CE0000343042903D1E16A206B01430B431360D2
:101CF00023685A69606AD208042840EAC2020AD1FD
:101D0000A66AE16A324331B1A06988B9002E18BFD2
:101D1000022E1FD016D35A61204600F015F9A96A89
:101D20003F228A408260002028620121697070BDD4
:101D3000B0F5005F0AD1032EEDD8DFE806F00D0BF9
:101D40000D03E8E7B1F1C07FE5D105E0022E03D92C
:101D5000F61EE0D1C801DED540212962012068705D
:101D600070BD90F83510022903D080224265012011
:101D70007047052180F8351000680268520852004B
:101D80000260002070472DE9FC41044604F134064E
:101D90000020604900904FF41650776A0A683D6849
:101DA000B2FBF0F8B06A082100F0B7F80ED0206856
:101DB000026853070AD5026822F004020260B06A82
:101DC0008140B960316A41F001013162B06A25FA9F
:101DD00000F1CA070BD521684A69110607D501220F
:101DE00002FA00F0B860306A40F00200306204216C
:101DF00000F092F808D021680A68930704D5B8600B
:101E0000306A40F004003062102100F085F81BD0E9
:101E100021680A68130717D5B860206801684A036B
:101E200007D5006801030BD5716969B12046884761
:101E30000AE00168CA0503D4016821F008010160C5
:101E4000F16809B120468847B06A202100F065F8A2
:101E50003FD021680A68D3063BD5B8602068717806
:101E600005291CD1026822F01602026000F059F820
:101E7000F068002804BF7069002801D000F05DF808
:101E80003F22B06A8240BA60002131700122727034
:101E9000F169002939D02046BDE8FC4108470168B6
:101EA0004A0307D5006801030FD4316989B1204680
:101EB00088470EE00168CA0507D4016821F01001C7
:101EC00001600020307001227270B16809B12046B3
:101ED0008847306AC8B1306AC10710D505207070D4
:101EE00000F025F80098401C8045009003D320683E
:101EF0000168CA07F6D40020307001217170B16901
:101F000019B12046BDE8FC410847BDE8F381000057
:101F10003F8010F018000020B06A01FA00F005427E
:101F200070472068416921F0800141617047206855
:101F3000016849084900016070472068016821F084
:101F4000080101607047000030B5016808A401F085
:101F5000FF02103A1823B2FBF3F2890A8902A55C4A
:101F6000C565042A28BF091D8165084630BD0000EB
:101F7000000610160006101610B5044610460A4654
:101F80000146204600F0F8FC204610BD80B50B4805
:101F9000016841F400710160026842F480620260ED
:101FA000016841F4807101600320FFF722FD0020E9
:101FB00000F0ECFCFFF7A6F8002002BD003C024058
:101FC00038B5040001D1012032BD00F021F808B974
:101FD00000F022F800F012F800F023F8FFE741616A
:101FE00000F001F832BD2068C16841F40051C160C1
:101FF0000020686020216970A970704724206870F3
:102000002068C16821F40051C160204600F01DB96C
:1020100004F1380568787047002129702046FFF7E1
:102020002FB92068016921F490410161206841695C
:1020300021F02A017047416921F040014161606B44
:10204000704738B5044625682968EA686B6911F05D
:102050000F0007D188065DD593065BD52046BDE805
:102060003240A9E0D80702D412F4907F52D0C807BA
:1020700005D5D50503D5E06B40F00100E0634807C6
:1020800005D5DD0703D5E06B40F00200E06388076B
:1020900005D5DD0703D5E06B40F00400E0630807D9
:1020A00005D5DB0703D5E06B40F00800E063E06B8B
:1020B00000286CD0880604D5910644BF204600F065
:1020C0007BF820684069E16B0A0701D440061BD504
:1020D000204600F05DF8206841694A060FD5FFF7F9
:1020E000AAFF60B10FF2C5010165606BFFF739FE11
:1020F00000284CD0606B016DBDE834400847204695
:10210000BDE8324000F080BC204600F07DFC00209D
:10211000E06331BD08062AD5130628D594F83900A6
:10212000212834D1A068B0F5805F206A0BD10188E6
:10213000C1F30801696020690028206A0CBF811C76
:10214000411C216203E0411C216200786860E08C40
:10215000401EE08480B2D0B92068C16821F08001BF
:10216000C1602068C16841F04001C16031BD4806CE
:102170000DD551060BD5E86820F04000E86020211D
:1021800084F839102046BDE8324000F03EBC31BD35
:102190000168CA6822F49072CA6001684A695208EC
:1021A00052004A61202180F83A107047806B00216C
:1021B000C185C18400F028BC80B590F83A1022296E
:1021C00041D18168B1F5805F12D101690368826AEB
:1021D0000029596805D1C1F308011180826A911C58
:1021E00004E001F0FF011180826A511C81620FE05E
:1021F00001690029816A04D14A1C826203685A6815
:1022000005E04A1C826203685A6802F07F020A7085
:10221000C18D491EC18589B299B90168CA6822F089
:102220002002CA600168CA6822F48072CA6001682C
:102230004A69520852004A61202180F83A1000F0A1
:10224000E5FB002002BD022002BD2DE9F047044657
:10225000642522681169E06821F44051014311614D
:102260001926D3684948A168034020690B43616976
:102270000343E0690B430343D3605169A06921F430
:10228000407101435161E36941484249B3F5004F50
:102290003BD18A4218BF82420ED100F0FEFA0746B7
:1022A00000F0FBFA804600F0F8FA814600F0F5FAFB
:1022B000824600F0F2FA0DE000F0E7FA074600F07F
:1022C000E4FA804600F0E1FA814600F0DEFA824648
:1022D00000F0DBFA6168490000F06DF8AE46BCFB27
:1022E000FEFE05FB1E77FF0032376423B7FBF3F3D6
:1022F0005B0003F4F87300F04FF8ED003235642012
:10230000B5FBF0F000F0070039E08A4218BF8242C6
:102310000ED100F0C2FA074600F0BFFA804600F086
:10232000BCFA814600F0B9FA824600F0B6FA0DE038
:1023300000F0ABFA074600F0A8FA804600F0A5FAD4
:10234000814600F0A2FA824600F09FFA6168890097
:1023500000F031F8AE46BCFBFEFE05FB1E773F01E8
:1023600032376423B7FBF3F303F0F00300F014F803
:102370002D0132356420B5FBF0F000F00F0021682C
:10238000C3188B60BDE8F08700000000F369FFFF11
:10239000001401400010014003EB021306FB0AF792
:1023A0004643B7FBF1F2B6FBF1F06421B0FBF1F16B
:1023B00005FB112570477743B7FBF1F36422B3FBAC
:1023C000F2F206FB08F3B3FBF1F706FB09F3B3FBEC
:1023D000F1FC70474AB1000011F8013B521E00F8B1
:1023E000013B1CBF11F8013BF8E770470146002094
:1023F000842918BFC81C704780B5FDF7DDFF002099
:1024000002BD38B5044684B0606900281CBFA069CD
:1024100000280D4612D0B4F90800FFF7E7FFA169C4
:1024200002912B46626901920090226921686068DE
:10243000FDF7BCFE0390039805B030BDB4F9080069
:10244000FFF7D4FF03A9019100902B462269216870
:10245000606892B2FDF7D8FE0128ECD00020EBE7CF
:1024600080B500B90120FDF78DFF002002BD0000FE
:1024700070B500F13C031A78012A01D1022070BD29
:1024800001221A7002245C7004686568A6684A68B4
:10249000096825F070050D43656026F08006006828
:1024A00016438660012159700020187070BD00002D
:1024B0002DE9F843040016D02078AD4EC1074AD567
:1024C000B06800F00C00042807D0B06800F00C00E1
:1024D00008280AD17068410207D5306881033AD5CF
:1024E0006068002837D1012040E16068B0F5803F86
:1024F00004D1306840F48030306011E0B0F5A02F96
:10250000306806D140F480203060316841F4803179
:1025100005E020F480303060316821F480213160A2
:10252000606860B100F022FA05463068810312D479
:1025300000F01CFA401B6528F7D3032016E100F0D9
:1025400015FA05463068810305D500F00FFA401BE7
:102550006528F7D3F1E72078864F810718D5B06852
:1025600010F00C0F07D0B06800F00C00082823D141
:102570007068410220D43068810702D5E0680128E4
:10258000B1D13168206921F0F80141EAC001316020
:102590002178080742D56069774990B301220A6023
:1025A00000F0E4F90546706F810737D400F0DEF9DA
:1025B000401B0228F7D9C0E7E068A8B101213960C3
:1025C00000F0D4F905463068810705D400F0CEF953
:1025D000401B0228F7D9B0E73068216920F0F800E5
:1025E00040EAC1003060D3E7386000F0BFF905462B
:1025F00031688807CCD500F0B9F9401B0228F7D91B
:102600009BE7086000F0B2F90546706F810705D5B9
:1026100000F0ACF9401B0228F7D98EE7207841077B
:102620005FD5306C0025C1000AD400950125316CBE
:1026300041F080513164306C00F08050009000987F
:10264000DFF83881D8F80000C10513D4D8F80000AD
:1026500040F48070C8F8000000F088F98146D8F88E
:102660000000C10506D400F081F9A0EB09000228A2
:10267000F5D962E7A068012805D00528306F06D19A
:1026800040F004003067306F40F0010005E0400882
:1026900040003067306F20F00400306741F2893825
:1026A000A06860B100F062F98146306F810713D4F1
:1026B00000F05CF9A0EB09004045F6D33DE700F0DF
:1026C00055F98146306F810706D500F04FF9A0EB30
:1026D00009004045F6D330E71DB1306C20F0805042
:1026E0003064A069002840D0B16801F00C010829CD
:1026F0003FF4F9AE02282AD10020386600F036F9FE
:1027000005463068810105D500F030F9401B0228EC
:10271000F7D912E7E069216A626A0843A16A4908A9
:1027200040EA8210491E40EA0140E16A40EA016045
:1027300070600120386600F019F9044630688101A4
:1027400013D400F013F9001B0228F7D9F5E6002096
:10275000386600F00BF904463068810105D500F0B9
:1027600005F9001B0228F7D9E7E60020BDE8F2834F
:102770000038024000004742800E4742007000408F
:102780002DE9F04104000F4654D0564E306800F059
:102790000F00B84202D200F072F84BD12068524DBF
:1027A000810712D5400703D5A96841F4E051A9601B
:1027B0002078010703D5A86840F46040A860A968A4
:1027C000A06821F0F0010143A9602178C80729D54C
:1027D0006068012802D129688A0305E0022818BF31
:1027E000032803D129688A0103D423E029688A07D2
:1027F00020D5A968890840EA8100A86000F0B6F8F1
:102800008046A868616800F00C00B0EB810F09D029
:1028100000F0ACF8A0EB080041F289318842F0D317
:1028200003202AE0306800F00F00874204D200F055
:1028300026F801D0012020E02078410705D5AA68BC
:10284000E06822F4E0520243AA602178080706D526
:10285000A968206921F4604141EAC001A96000F043
:102860004DF8AA682149224BC2F30312895CC84083
:102870001860002000F08AF80020BDE8F081377071
:10288000316801F00F01B94270471948194A0068D0
:1028900013681949C3F3822206E01548154A0068F7
:1028A00013681549C3F34232895CC840704710B5BC
:1028B0000F2202600F4A136803F003034360146899
:1028C00004F0F0048460136803F4E053C3601268FA
:1028D000D20802F4E05202610248026802F00F02DC
:1028E0000A6010BD003C024000380240082E00087B
:1028F00018000020083802402C2F000830B5144C76
:10290000606800F00C00042802D0082802D01DE006
:10291000104830BD226820680023410202F03F02C7
:1029200004D525680B49C5F3881003E020680A49DF
:10293000C0F38810A1FB000100F06AF82168C1F320
:102940000141491C4900B0FBF1F030BD024830BDE7
:102950000438024040787D010024F40002484168B8
:1029600002788A18426070470C00002001484068D5
:10297000704700BF0C0000204018491C1CBFB1F17B
:10298000010100F8012DF9D17047000018B501468A
:1029900087B000221920FFF739F81920FFF753F804
:1029A00000200090144C1548016841F001010160BD
:1029B00001A9006800F001000090009802A8FFF74C
:1029C00076FFFFF76AFF0E490E4B2160B0FBF3F074
:1029D000401E40F2E73260600021E2602161A160A8
:1029E0002046FEF725F918B92046FEF72EF900E03B
:1029F000012008B010BD00006C43002044380240A4
:102A00000000014040420F007047704770470000CF
:102A1000D3BBD9B1B2F5803F5BD2022A1ED98C4616
:102A2000B1FBF2F102FB11C31B0443EA1043B3FBF9
:102A3000F2FC02FB1C3380B240EA0343B3FBF2F02A
:102A400002FB103240EA0C4000237047022A05D9ED
:102A50008446B0FBF2F002FB10C270474AB105D1C8
:102A600000F0010249085FEA3000704700220023AD
:102A7000704700F051B80B000200002100207047A1
:102A8000F7D3002200237047904271EB030CF2D37E
:102A900070B5B1FA81F4B3FA83F52C1BA340C4F1ED
:102AA000200532FA05F63343A2405FF00046E640C7
:102AB00002E05B085FEA3202841A71EB030524BF6F
:102AC000204629467641F4D302000B003000002155
:102AD00070BD70B5B1FA81F4B2FA82F5C4F1200488
:102AE0006419B4F12006DAD3B2405FF00044F44038
:102AF000002502E052085FEA3303C61A71EB020EAA
:102B000024BF3046714664416D41F3D302000B008F
:102B10002000290070BD0000704700002DE9F84F2B
:102B200005464FF0000828684669D0F804B084686C
:102B3000D0F80C90D0F810A08769F10745D5E207CE
:102B400013D501218160A00703D5284600F0E2F8E3
:102B50000BE0600748BF4FF4006806D420074EBF63
:102B60004FF48058284600F0D6F8E00515D52A68BD
:102B70004FF48071A005916003D5284600F0CCF891
:102B80000BE0600548BF48F4005806D420054EBF4E
:102B900048F48048284600F0C0F8E00315D52A68BC
:102BA0004FF48031A003916003D5284600F0B6F8B9
:102BB0000BE0600348BF48F4004806D420034EBF32
:102BC00048F48038284600F0AAF8300748BF5FEA8A
:102BD000C96104D52968102048F40078C8607007DE
:102BE00048BF5FEA097105D52A680820D0602846E9
:102BF00000F096F8B00707D52968C86810F0030FF1
:102C00001CBF284600F08DF8700648BF5FEACA6115
:102C100004D52968102048F480680861B00648BFD0
:102C20005FEA0A7105D52A6808201061284600F07D
:102C300079F8F00607D52968086910F0030F1CBF62
:102C4000284600F070F8B00348BF5FEACB6105D5B5
:102C50002A6810205060284600F066F8F00348BF4C
:102C60005FEA0B7105D52A6808205060284600F0FD
:102C70005CF8300440D55FEA4B713AD5F00503D5D6
:102C8000F90748BF48F00108B00503D5B90748BFA8
:102C900048F00208700503D5790748BF48F00408DA
:102CA000300526D517F0700F23D007F07007102FCE
:102CB0000CD0202F0DD0302F0ED0402F0FD0502F02
:102CC00010D0602F08BF48F480780DE048F0080865
:102CD0000AE048F0100807E048F0200804E048F057
:102CE000400801E048F080082868816921F07001FF
:102CF0008161042029684860B8F1000F08D0686A33
:102D000048EA000068622846BDE8F24F00F00EB8BD
:102D1000BDE8F18F70477047704770477047704744
:102D200070477047704770477047704770470000A2
:102D30007047FEE7FEE7FEE7FEE770471348FFF740
:102D400022B81348FFF71FB801E0000000BF114888
:102D5000FFF7E4BE1048FDF7A7BF1048FFF771B9B1
:102D60000F48FFF76EB90F48FFF76BB90E48FFF732
:102D70000AB80E48FFF707B801E0000000BF0C4892
:102D8000FFF7CCBE0B48FFF75CB90000AC42002057
:102D90004C420020744100206C430020883E0020FB
:102DA000C83E0020083F00200C430020EC410020DA
:102DB0009C410020483F00200E48016841F470010A
:102DC000016000220C49086840F0010008608A6038
:102DD0000B680A480A4A03400B604A6000200B68EF
:102DE000084A23F480230B60C8604FF00061116033
:102DF0007047000088ED00E000380240FFFFF6FE5B
:102E00001030002408ED00E0000000000000000089
:102E1000010203040607080930B5016884684218F6
:102E2000416802EB5103C90703D54C4401E0491C3A
:102E300005D19A420AD012F9011B12F8015B002950
:102E400004F8015BF3D4491EF7D5F2E70C3030BD2E
:102E500010B5074979441831064C7C44163404E017
:102E60000A68081D114488470146A142F8D110BDE7
:102E70002C000000480000004EF68851CEF2000100
:102E8000086840F470000860BFF34F8FBFF36F8F86
:102E90004FF00070E1EE100A70470000DFDAFFFF2C
:102EA000904300001C000020000000006DFFFFFFA9
:102EB000B0010000240000000000002000F00DF828
:102EC000002801D0FFF7C4FFAFF300800020AFF36C
:102ED0000080FEF733FB00F002F80120704700F09D
:102EE00001B800000746384600F002F8FBE7000092
:102EF00080B5AFF30080024A11001820ABBEFBE79B
:102F0000260002000148804701480047B92D00080B
:102F1000212F000864656661756C745461736B00E1
:102F2000AFF30080FFF7A8FFFFF7C8FF0000000025
:102F300001020304FFF7FEBFFFF7FEBFFFF7FEBF6E
:102F4000FFF7FEBFFFF7FEBFFFF7FEBFFFF7FEBFB5
:102F5000FFF7FEBFFFF7FEBFFFF7FEBFFFF7FEBFA5
:102F6000FFF7FEBFFFF7FEBFFFF7FEBFFFF7FEBF95
:102F7000FFF7FEBFFFF7FEBFFFF7FEBFFFF7FEBF85
:102F8000FFF7FEBFFFF7FEBFFFF7FEBFFFF7FEBF75
:102F9000FFF7FEBFFFF7FEBFFFF7FEBFFFF7FEBF65
:102FA000FFF7FEBFFFF7FEBFFFF7FEBFFFF7FEBF55
:102FB000FFF7FEBFFFF7FEBFFFF7FEBFFFF7FEBF45
:102FC000FFF7FEBFFFF7FEBFFFF7FEBFFFF7FEBF35
:102FD000FFF7FEBFFFF7FEBFFFF7FEBFFFF7FEBF25
:102FE000FFF7FEBFFFF7FEBFFFF7FEBFFFF7FEBF15
:102FF000FFF7FEBFFFF7FEBFFFF7FEBFFFF7FEBF05
:10300000FFF7FEBFFFF7FEBFFFF7FEBFFFF7FEBFF4
:10301000FFF7FEBFFFF7FEBFFFF7FEBFFFF7FEBFE4
:10302000FFF7FEBFFFF7FEBFFFF7FEBFFFF7FEBFD4
:10303000FFF7FEBFFFF7FEBFFFF7FEBFFFF7FEBFC4
:10304000FFF7FEBFFFF7FEBFFFF7FEBFFFF7FEBFB4
:10305000FFF7FEBFFFF7FEBFFFF7FEBFFFF7FEBFA4
:10306000FC00FCAAFC000001F9000010FC00022496
:02307000F4006A
:0400000508002F219F
:00000001FF
